S00E000054696D6572732E73726563A2
S11300000C942A000C943C000C943C000C943C008E
S11300100C943C000C943C000C943C000C943C006C
S11300200C943C000C943C000C9466000C943C0032
S11300300C943C000C943C000C943C000C943C004C
S11300400C943C000C943C000C943C000C943C003C
S11300500C943C0011241FBECFE5D8E0DEBFCDBF19
S113006020E0A0E6B0E001C01D92A436B207E1F79B
S11300700E943E000C9497000C9400000E9487009C
S113008020E430E280916300843631F48F9A82B3A5
S1130090805882BB1092630080916200883C31F4E6
S11300A08E9A82B3822782BB109262008091600094
S11300B0909161008C32914029F78D9A82B3832705
S11300C082BB1092610010926000DCCF1F920F92ED
S11300D00FB60F9211248F939F93809163008F5FCB
S11300E080936300809162008F5F809362008091AF
S11300F0600090916100019690936100809360008C
S11301009F918F910F900FBE0F901F90189583B7FA
S1130110886083BF89B7826089BF78948EE48CBF7E
S113012083B7816083BF83B7846083BF0895F894E5
S1050130FFCFFB
S9030000FC
